:100000000C9463000C948B000C948B000C948B006C
:100010000C948B000C948B000C948B000C948B0034
:100020000C948B000C948B000C948B000C948B0024
:100030000C948B000C948B000C948B000C948B0014
:100040000C9421030C948B000C9491030C946B037F
:100050000C948B000C948B000C948B000C948B00F4
:100060000C948B000C948B000000000024002700EF
:100070002A0000000000250028002B0000000000DE
:1000800023002600290004040404040404040202DA
:100090000202020203030303030301020408102007
:1000A0004080010204081020010204081020000012
:1000B0000008000201000003040700000000000027
:1000C0000000C303760611241FBECFEFD8E0DEBFC9
:1000D000CDBF21E0ACE1B1E001C01D92A93DB20766
:1000E000E1F711E0A0E0B1E0ECE6F1E102C005903B
:1000F0000D92AC31B107D9F710E0C2E6D0E004C0F0
:100100002197FE010E94B106C136D107C9F70E94AE
:10011000FE030C94A9080C9400000895AF92BF92BE
:10012000CF92DF92EF92FF920F931F93CF93DF93C3
:100130006C017B018B01040F151FEB015E01AE18F2
:10014000BF08C017D10759F06991D601ED91FC9114
:100150000190F081E02DC6010995892B79F7C50141
:10016000DF91CF911F910F91FF90EF90DF90CF9093
:10017000BF90AF900895FC01538D448D252F30E042
:10018000842F90E0821B930B541710F0CF960895A4
:1001900001970895FC01918D828D981761F0A28DD1
:1001A000AE0FBF2FB11D5D968C91928D9F5F9F7397
:1001B000928F90E008958FEF9FEF0895FC01918D4D
:1001C000828D981731F0828DE80FF11D858D90E0BA
:1001D00008958FEF9FEF0895FC01918D228D892F57
:1001E00090E0805C9F4F821B91098F73992708953F
:1001F00082E391E00E94EC0021E0892B09F420E0E9
:10020000822F089580E090E0892B29F00E94F80069
:1002100081110C9400000895FC01A48DA80FB92F42
:10022000B11DA35ABF4F2C91848D90E001968F731E
:100230009927848FA689B7892C93A089B1898C913D
:10024000837080648C93938D848D981306C002888C
:10025000F389E02D80818F7D80830895EF92FF9256
:100260000F931F93CF93DF93EC0181E0888F9B8DD9
:100270008C8D98131AC0E889F989808185FF15C093
:100280009FB7F894EE89FF896083E889F9898081B6
:100290008370806480839FBF81E090E0DF91CF9185
:1002A0001F910F91FF90EF900895F62E0B8D10E0A7
:1002B0000F5F1F4F0F731127E02E8C8D8E110CC016
:1002C0000FB607FCFACFE889F989808185FFF5CF61
:1002D000CE010E940C01F1CFEB8DEC0FFD2FF11D33
:1002E000E35AFF4FF0829FB7F8940B8FEA89FB899E
:1002F00080818062CFCFCF93DF93EC01888D8823FC
:10030000B9F0AA89BB89E889F9898C9185FD03C078
:10031000808186FD0DC00FB607FCF7CF8C9185FF5D
:10032000F2CF808185FFEDCFCE010E940C01E9CF95
:10033000DF91CF910895833081F028F4813099F0D6
:100340008230A9F008958730A9F08830C9F0843050
:10035000B1F4809180008F7D03C0809180008F7701
:1003600080938000089584B58F7784BD089584B507
:100370008F7DFBCF8091B0008F778093B000089580
:100380008091B0008F7DF9CF1F93CF93DF93282FFB
:1003900030E0F901E255FF4F8491F901E656FF4F35
:1003A000D491F901EA57FF4FC491CC23A9F0162F3D
:1003B00081110E949B01EC2FF0E0EE0FFF1FEE5821
:1003C000FF4FA591B4918FB7F894EC91111108C02B
:1003D000D095DE23DC938FBFDF91CF911F910895DD
:1003E000DE2BF8CFCF93DF9390E0FC01E656FF4F72
:1003F00024918A579F4FFC0184918823D1F090E08B
:10040000880F991FFC01E859FF4FA591B491FC0199
:10041000EE58FF4FC591D49161110EC09FB7F8946B
:100420008C91E22FE0958E238C932881E223E88340
:100430009FBFDF91CF9108958FB7F894EC91E22B95
:10044000EC938FBFF6CF8E50806480937C008091B8
:100450007A00806480937A0080917A0086FDFCCFD8
:1004600080917800909179000895FC0180819181BC
:10047000009711F00C94530708950F931F93CF9397
:10048000DF938C01EB01FC01808191810097E1F009
:100490006881798161157105A9F0428153812C81B0
:1004A0003D814217530770F00E94A2088C819D8104
:1004B000F801958384831D821C82DF91CF911F9167
:1004C0000F9108950E94530788819981F8019183C3
:1004D00080838A819B81938382838C819D81958394
:1004E0008483198218821B821A82E5CF0F931F938F
:1004F000CF93DF93EC0188819981009759F02A818D
:100500003B812617370730F081E0DF91CF911F91B3
:100510000F9108958B016F5F7F4F0E94DC0700975A
:1005200059F0998388831B830A832C813D81232B77
:1005300059F7FC011082E8CF80E0E7CFEF92FF92FD
:100540000F931F93CF93DF9300D0CDB7DEB78C010D
:1005500069831A82FC01E480F580FFEFEF1AFF0A3D
:10056000B7010E947602F801208131818823B1F021
:1005700084819581BE016F5F7F4F820F931F0E9420
:10058000A208F801F582E482C8010F900F90DF9174
:10059000CF911F910F91FF90EF9008952115310594
:1005A00019F0C9010E945307F801118210821582C7
:1005B000148213821282E8CFEF92FF920F931F935F
:1005C000CF93DF93EC017B018A01BA010E9476028E
:1005D00028813981811114C02115310519F0C90113
:1005E0000E945307198218821D821C821B821A8264
:1005F000CE01DF91CF911F910F91FF90EF90089561
:100600001D830C83B701C9010E94A208F1CFFB0131
:10061000DC0111961C921E9213961C921E92129748
:1006200015961C921E9214978617970749F06081C1
:1006300071816115710521F0448155810C94DC02B2
:1006400008951F920F920FB60F9211242F933F938C
:100650008F939F93AF93BF9380912E0190912F0121
:10066000A0913001B091310130912D0123E0230F91
:100670002D3758F50196A11DB11D20932D018093B2
:100680002E0190932F01A0933001B09331018091FE
:10069000290190912A01A0912B01B0912C01019682
:1006A000A11DB11D8093290190932A01A0932B01D4
:1006B000B0932C01BF91AF919F918F913F912F915A
:1006C0000F900FBE0F901F90189526E8230F0296EB
:1006D000A11DB11DD2CF1F920F920FB60F92112400
:1006E0002F933F934F935F936F937F938F939F933A
:1006F000AF93BF93EF93FF9382E391E00E940C01CD
:10070000FF91EF91BF91AF919F918F917F916F91E9
:100710005F914F913F912F910F900FBE0F901F90BF
:1007200018951F920F920FB60F9211242F938F934B
:100730009F93EF93FF93E0914201F09143018081F9
:10074000E0914801F091490182FD1BC090818091A8
:100750004B018F5F8F7320914C01821741F0E09124
:100760004B01F0E0EE5CFE4F958F80934B01FF91C3
:10077000EF919F918F912F910F900FBE0F901F902F
:1007800018958081F4CFE2E3F1E01382128288EEC3
:1007900093E0A0E0B0E084839583A683B7838AE0EA
:1007A00091E09183808385EC90E09587848784EC49
:1007B00090E09787868780EC90E0918B808B81EC2E
:1007C00090E0938B828B82EC90E0958B848B86EC0F
:1007D00090E0978B868B118E128E138E148EEFEC19
:1007E000F1E011821082138212821582148250E08D
:1007F00040E06AE171E0CF010C94DC02CF93DF931B
:10080000CDB7DEB768970FB6F894DEBF0FBECDBF89
:10081000789484B5826084BD84B5816084BD85B5DB
:10082000826085BD85B5816085BD80916E008160E7
:1008300080936E001092810080918100826080938D
:10084000810080918100816080938100809180008F
:100850008160809380008091B10084608093B100BA
:100860008091B00081608093B00080917A008460B4
:1008700080937A0080917A00826080937A008091E0
:100880007A00816080937A0080917A0080688093FA
:100890007A001092C10060E082E00E94F20161E003
:1008A00083E00E94F20160E084E00E94F20161E0D6
:1008B00085E00E94F20161E086E00E94F20160E0C2
:1008C00087E00E94F20160E088E00E94F20161E0AE
:1008D00089E00E94F20161E08AE00E94F20161E099
:1008E0008BE00E94F20160E08CE00E94F20160E087
:1008F0008DE00E94F201E0914201F091430182E01B
:100900008083E0913E01F0913F011082E09140012F
:10091000F09141018FEC808310924A01E0914601F1
:10092000F091470186E08083E0914401F091450118
:10093000808180618083E0914401F0914501808154
:1009400088608083E0914401F09145018081806856
:100950008083E0914401F091450180818F7D808307
:1009600030E0E32E30E0F32E82E391E00E94EC00D1
:10097000181619060CF0AEC182E391E00E94CA007D
:10098000182F6FEC71E0CE0107960E940703612FCC
:10099000CE0107960E949E02BC01CE0101960E94E4
:1009A0000703BE016F5F7F4F8FEC91E00E943D0215
:1009B000CE0101960E943502CE0107960E943502B3
:1009C0008091D3019091D4010C9709F083C16FEC11
:1009D00071E0CE0143960E9407032DE1A22E21E093
:1009E000B22ED12CC12C8F89988DC816D90608F04B
:1009F000A7C086010E5F1F4F8B899C8996012D7FB2
:100A0000232B59F09601255031092230310528F069
:100A10002550310922303105A0F5009701F51092DB
:100A20001C018CE191E0F5012081FC01808188238B
:100A3000C9F021110DC061E012E01C0D812F0E9450
:100A4000F20161E0812F0E94C40181E0F501808301
:100A5000FFEFCF1ADF0A8FEFA81AB80AC4CF8C0DA8
:100A60009D1DE1CF2223A1F360E012E01C0D812F38
:100A70000E94C40160E0812F0E94F201F501108202
:100A8000E7CF0097A1F410921C018CE191E0FC01EA
:100A9000908092E0892E8C0C61E0882D0E94F201FA
:100AA000911008C060E0882D0E94C401D1CF8C0D48
:100AB0009D1DEDCFF801FF27E255FF4FE491E33094
:100AC00011F148F4E130D1F0E23061F784B5806291
:100AD00084BD98BCBDCFE73019F1E83049F1E4306E
:100AE00009F780918000806280938000892D990CA5
:100AF000990B90938B0080938A00AACF84B580686D
:100B000084BD97BCA5CF80918000806880938000D1
:100B1000892D990C990B909389008093880098CF28
:100B20008091B00080688093B0009092B30090CF25
:100B30008091B00080628093B0009092B40088CF22
:100B40001E861D86188A1F861A8A198A50E040E080
:100B50006AE171E0CE010D960E94DC0202E010E035
:100B60000230110559F00430110541F0C801079712
:100B70008230910518F00597029728F5F801E55E97
:100B8000FE4F808181111FC0F801E255FF4F849113
:100B9000F801E656FF4FC490F801EA57FF4FD49092
:100BA000DD2089F081110E949B01ED2DF0E0EE0F18
:100BB000FF1FE458FF4FA591B491EC91CE22DD24A4
:100BC000D394C11001C0D12CBE01635F7F4FCE0111
:100BD00007960E9407036D2DCE0107960E949E0284
:100BE000BC01CE0101960E940703BE016F5F7F4FDB
:100BF000CE010D960E943D02CE0101960E94350263
:100C0000CE0107960E9435020F5F1F4F0E3011056F
:100C100009F0A6CF8EE00E942302A82E8FE00E944A
:100C20002302B82E80E10E942302C82E81E10E9497
:100C30002302D82E82E10E942302082F83E10E9422
:100C40002302182FBE01635F7F4FCE0101960E94E1
:100C500007036A2DCE0101960E949E026B2D0E9411
:100C60009E026C2D0E949E026D2D0E949E02602F9E
:100C70000E949E02612F0E949E02BC01CE01079637
:100C80000E940703CE0101960E943502CE010D9607
:100C90000E9435024B855C856F81788582E391E007
:100CA0000E948E0042E050E068E171E082E391E052
:100CB0000E948E00CE0107960E943502CE01439617
:100CC0000E94350250E040E06AE171E08FEC91E073
:100CD0000E94DC02E114F10409F446CE0E94F800FF
:100CE000882309F43DCE0E9400003ACE8FEC91E0BB
:100CF0000C9435022F923F924F925F926F927F92A7
:100D00008F929F92AF92BF92CF92DF92EF92FF921B
:100D10000F931F93CF93DF93CDB7DEB7CA1BDB0BC7
:100D20000FB6F894DEBF0FBECDBF09942A8839886C
:100D300048885F846E847D848C849B84AA84B98473
:100D4000C884DF80EE80FD800C811B81AA81B9817F
:100D5000CE0FD11D0FB6F894DEBF0FBECDBFED0193
:100D60000895EE0FFF1F0590F491E02D09940F9365
:100D70001F93CF93DF938230910510F482E090E0CF
:100D8000E091D701F091D80130E020E0B0E0A0E0A0
:100D9000309799F42115310509F44AC0281B390B05
:100DA00024303105D8F58A819B816115710589F15F
:100DB000FB0193838283FE0111C040815181028136
:100DC000138148175907E0F04817590799F410970D
:100DD00061F012960C93129713961C933296CF01E2
:100DE000DF91CF911F910F9108950093D701109338
:100DF000D801F4CF2115310551F04217530738F0CF
:100E0000A901DB019A01BD01DF01F801C1CFEF01AA
:100E1000F9CF9093D8018093D701CDCFFE01E20F97
:100E2000F31F819391932250310939832883D7CFBF
:100E30002091D5013091D601232B41F4209102015C
:100E4000309103013093D6012093D5012091000108
:100E5000309101012115310541F42DB73EB7409184
:100E6000040150910501241B350BE091D501F0914F
:100E7000D601E217F307A0F42E1B3F0B2817390702
:100E800078F0AC014E5F5F4F2417350748F04E0FE6
:100E90005F1F5093D6014093D501819391939FCFCB
:100EA000F0E0E0E09CCFCF93DF930097E9F0FC0106
:100EB000329713821282A091D701B091D801ED012F
:100EC00030E020E01097A1F420813181820F931F40
:100ED0002091D5013091D6012817390709F061C05A
:100EE000F093D601E093D501DF91CF910895EA0107
:100EF000CE17DF07E8F54A815B819E014115510558
:100F0000B1F7E901FB83EA8349915991C40FD51FD9
:100F1000EC17FD0761F4808191810296840F951F83
:100F2000E90199838883828193819B838A83F0E09E
:100F3000E0E012968D919C9113970097B9F52D9151
:100F40003C911197CD010296820F931F2091D501FC
:100F50003091D6012817390739F6309751F510929C
:100F6000D8011092D701B093D601A093D501BCCF80
:100F7000D383C28340815181840F951FC817D9073D
:100F800061F44E5F5F4F88819981480F591F5183EB
:100F900040838A819B81938382832115310509F0E7
:100FA000B0CFF093D801E093D7019ECFFD01DC01D3
:100FB000C0CF13821282D7CFB0E0A0E0E2EEF7E01C
:100FC0000C947C068C01009751F4CB010E94B7066B
:100FD0008C01C801CDB7DEB7E0E10C949806FC01A6
:100FE000E60FF71F9C0122503109E217F30708F4BE
:100FF0009DC0D901CD91DC911197C617D70798F004
:10100000C530D10530F3CE0104978617970708F352
:10101000C61BD70B2297C193D1936D937C93CF01BD
:101020000E945307D6CF5B01AC1ABD0A4C018C0E4F
:101030009D1EA091D701B091D801512C412CF12CCB
:10104000E12C109731F58091D5019091D60188154A
:10105000990509F05CC04616570608F058C0809103
:10106000000190910101009741F48DB79EB7409126
:10107000040150910501841B950BE817F90708F04E
:1010800055C0F093D601E093D501F90171836083D7
:10109000A0CF8D919C91119712966C9012971396F8
:1010A0007C901397A815B90559F56C0142E0C40E60
:1010B000D11CCA14DB0420F1AC014A195B09DA0126
:1010C0001296159780F06282738251834083D90112
:1010D0006D937C93E114F10471F0D7011396FC93A6
:1010E000EE93129776CF22968C0F9D1FF901918374
:1010F0008083F301EFCFF093D801E093D70169CF5C
:101100004816590608F42C017D01D3019ACFCB0172
:101110000E94B7067C01009749F0AE01B8010E9419
:101120009908C8010E945307870153CF10E000E0DF
:1011300050CFFB01DC0102C001900D9241505040A4
:10114000D8F70895FB01DC0101900D920020E1F732
:10115000089510E0C2E6D0E004C0FE010E94B1068E
:0C1160002196C336D107C9F7F894FFCFE1
:10116C000000D9018000000000002E018E00BB00A1
:0C117C007B01EC00CA00DE000D0A000040
:00000001FF
